:0400000080EF00F09D
:08000800046ED8CF05F0E0CF33
:1000100006F00001E9CF0CF0EACF07F0E1CF08F0DD
:10002000E2CF09F0D9CF0AF0DACF0BF0F3CF12F01C
:10003000F4CF13F0FACF14F000C00EF001C00FF0AF
:1000400002C010F003C011F0F2AA2AEF00F0F2B4DF
:100050004BEF00F00EC000F00FC001F010C002F036
:1000600011C003F00CC0E9FF07C0EAFF078E08C00B
:10007000E1FF09C0E2FF0AC0D9FF0BC0DAFF12C0DE
:10008000F3FF13C0F4FF14C0FAFF045006C0E0FFF2
:1000900005C0D8FF1000B60ED76EC20ED66E16067B
:1000A000165204E1020E166E010E811A170617523F
:1000B00004E1030E176E020E811A1806185203E1AE
:1000C000040E186E811A1906195204E1060E196EF3
:1000D000080E811AF2942AEF00F0000E936E816AE6
:1000E000020E166E176E186E196E850ED56EC00E46
:1000F000F212F28AB60ED76EC20ED66E8AEF00F0FA
:10010000F86AD09E078EC150C00B0F09C16E070E52
:08011000B46EE3D7FFD7030032
:020000040030CA
:0E000000240E3F1E008081000FC00FA00F4095
:00000001FF
;PIC18F4550
;CRC=A468  CREATED="25-Ìבת-25 18:45"
