:10000000BCEF00F0F76A140FF66E000EF72209003D
:10001000F5501200373839433435364231323341E6
:100020002A303D44000E956E836ACAEF00F0F00E50
:10003000936E936A0F0E8A6ECBEF00F09388000EDA
:1000400081B8010E0B6E938A000E81BA010E0B1659
:10005000938C000E81BC010E0B16938E000E81BE98
:10006000010E0B1404E0000E016E03D002D0010E4D
:10007000016E1200096A042A0450C808D8B067D07B
:100080000750FC0F26E2040FABEF00F093908A902C
:1000900093928A8293948A8493968A861AD09390B4
:1000A0008A8093928A9293948A8493968A8611D0B6
:1000B00093908A8093928A8293948A9493968A8664
:1000C00008D093908A8093928A8293948A8493969C
:1000D0008A9605A008D0B2DF015204E1059006C05F
:1000E00009F0066A33D0AADF01522BE0938881B869
:1000F00002D00A6A11D0938A81BA03D0010E0A6E27
:100100000BD0938C81BC03D0020E0A6E05D0938E67
:1001100081BE02D0030E0A6E0A50040DF3500C6A21
:100120000B6E036A07500B24016E0C500322015022
:10013000F2CF0BF0F29E66DF0BBEF28E066E0580EC
:1001400005D0072A0750040801E1076A046A09C0BC
:1001500001F0CCEF00F0E824F76AF736710FF66E85
:10016000010EF7220A00F550FA6E0800F550F96EFC
:100170008C009E00B000C200F86AD09EC150C00B37
:100180000F09C16E070EB46E0590046A0590066AE9
:10019000076A48D74CD76ED701C008F0085203E071
:0A01A00008500F0B836EF7D7030021
:020000040030CA
:0E000000240E3F1E008081000FC00FA00F4095
:00000001FF
;PIC18F4550
;CRC=71DC  CREATED="15-Ìבת-25 21:06"
