:04000000D1EF00F04C
:08000800046ED8CF05F0E0CF33
:1000100006F00001E9CF0CF0EACF07F0E1CF08F0DD
:10002000E2CF09F0D9CF0AF0DACF0BF0F3CF12F01C
:10003000F4CF13F0FACF14F000C00EF001C00FF0AF
:1000400002C010F003C011F0F0A82AEF00F0F0B2E7
:1000500067EF00F0F2A630EF00F0F2B080EF00F0B2
:100060000EC000F00FC001F010C002F011C003F08C
:100070000CC0E9FF07C0EAFF078E08C0E1FF09C016
:10008000E2FF0AC0D9FF0BC0DAFF12C0F3FF13C0B2
:10009000F4FF14C0FAFF045006C0E0FF05C0D8FF0B
:1000A0001000EA6A1B0EE96EEF5010E00F0E016EB1
:1000B000BF0E006E0400002EFDD7012EF9D78F0E63
:1000C000006E002EFED70400EF2EF0D71200100EA7
:1000D0001A6EFA0E1B6EE5DF1A2EFBD719A00DD093
:1000E00081B40BD0020E831A140E1A6EFA0E1B6E18
:1000F000D8DF1A2EFBD7020E831AF09230EF00F0F1
:1001000081501718166E81CF17F016A804D017B8B3
:1001100002D0100E186E16A804D017A802D0100E28
:10012000186E16AA04D017BA02D0200E186E16AA9E
:1001300004D017AA02D0200E186E16AC04D017BC3B
:1001400002D0400E186E16AC04D017AC02D0400E90
:10015000186E16AE04D017BE02D0800E186E16AE02
:1001600004D017AE02D0800E186E1850831A835038
:10017000F00802E1198001D01990F29030EF00F000
:10018000FF0E936E000E956E836AF19EF198F184D6
:10019000F182F180F08EF088F286C00EF212DFEF6D
:1001A00000F0F86AD09E078E166A176A186A1990CE
:1001B000C150C00B0F09C16E070EB46EE1D7FFD757
:0201C00003003A
:020000040030CA
:0E000000240E3F1E008081000FC00FA00F4095
:00000001FF
;PIC18F4550
;CRC=0DEE  CREATED="28-Ìבס-25 00:08"
