:0400000081EF00F09C
:08000800046ED8CF05F0E0CF33
:1000100006F00001E9CF0CF0EACF07F0E1CF08F0DD
:10002000E2CF09F0D9CF0AF0DACF0BF0F3CF12F01C
:10003000F4CF13F0FACF14F000C00EF001C00FF0AF
:1000400002C010F003C011F0F2AA2AEF00F0F2B4DF
:100050004BEF00F00EC000F00FC001F010C002F036
:1000600011C003F00CC0E9FF07C0EAFF078E08C00B
:10007000E1FF09C0E2FF0AC0D9FF0BC0DAFF12C0DE
:10008000F3FF13C0F4FF14C0FAFF045006C0E0FFF2
:1000900005C0D8FF1000DB0ED76E610ED66E83B29E
:1000A00009D01606F00E8116165204E1F00E811AE0
:1000B000020E166E83B00ED01606165204E1F00E34
:1000C000811A020E166E1706175204E10F0E811ADE
:1000D000050E176EF2942AEF00F0000E936EFF0EDD
:1000E000956E816A020E166E050E176E850ED56E20
:1000F000DB0ED76E610ED66EF28AC00EF2128BEF57
:1001000000F0F86AD09E078EC150C00B0F09C16E77
:0A011000070EB46EE2D7FFD703001C
:020000040030CA
:0E000000240E3F1E008081000FC00FA00F4095
:00000001FF
;PIC18F4550
;CRC=55DD  CREATED="05-Απρ-25 12:26"
