:1000000028EF01F0F76A140FF66E000EF7220900D0
:10001000F5501200280C0106F76A280FF66E000E44
:10002000F7220900F55012001F10101010101000D8
:10003000040A111111111F000E11111F11110E00D0
:10004000040A1111111111001F00000E00001F0001
:100050001F111111111111001F08040204081F00C3
:100060000E11110E00001F0041034559504F054F5E
:1000700059034F06200A0000EA6A090EE96EEF50A4
:1000800010E00F0E016EBF0E006E0400002EFDD7B3
:10009000012EF9D78F0E006E002EFED70400EF2E32
:1000A000F0D7120010B002D08A9801D08A889398B5
:1000B00010B202D08A9A01D08A8A939A10B402D0E0
:1000C0008A9C01D08A8C939C10B602D08A9E01D063
:1000D0008A8E939E060E006E002EFED70000939629
:1000E0008A860400C70E006E002EFED7000093968D
:1000F0008A96120093948A940D5203E093948A8412
:1001000002D093948A94020E006E002EFED700D087
:10011000000093968A960E380F6E0F0E0F160FC0C2
:1001200010F0C0DF0E500F0B0F6E106EBBDF120011
:1001300093948A9493968A9693928A920A0E096E61
:100140009BDF066A0650020808E3030E106EAADF62
:10015000020E096E91DF062AF5D7020E106EA2DF9D
:10016000066A0650030811E3036A0650F2CF07F04F
:10017000F29E48DF07BEF28E076E0D6A0E6EBADF82
:10018000010E096E79DF062AECD732EF01F00D6A15
:10019000400E0E6EAFDF066A06503F0810E3036A9A
:1001A0000650F2CF07F0F29E37DF07BEF28E076EE1
:1001B000010E0D6E07C00EF09DDF062AEDD70D6A09
:1001C000800E0E6E97DF33EF01F00A2C01D003D0C2
:1001D000400E0B6E01D00B6A010E095C0B260B5012
:1001E00080090C6E0D6A0E6E85DF120008500C0A35
:1001F00005E0060A0BE0020A0FE013D00D6A010EBB
:100200000E6E78DF010E096E37DF10D0010E096E19
:10021000020E0A6EDADF0AD00D6A100E0E6E6ADF69
:1002200005D0010E0D6E08C00EF064DF120009004B
:10023000F5520CE0F6CF06F0F7CF07F0F5CF08F057
:10024000D5DF06C0F6FF07C0F7FFF1D738EF01F0A2
:10025000F86AD09EC150C00B0F09C16E070EB46E74
:10026000056A66D794D7680EF66E000EF76EDFD774
:10027000010E096E020E0A6EA8DF050E086EB6DFCB
:10028000410E086EB3DF4E0E086EB0DF410E086EF1
:10029000ADDF086AABDF490E086EA8DF070E086EF7
:1002A000A5DF540E086EA2DF480E086E9FDF060E13
:1002B000086E9CDF080E066EFA0E096EDDDE062E55
:1002C000FBD7056A0550090809E30D6A1C0E0E6E7E
:1002D00011DF640E096ED0DE052AF4D7056A0550D9
:1002E000090809E30D6A180E0E6E04DF640E096E2C
:0A02F000C3DE052AF4D7E5D70300AA
:020000040030CA
:0E000000240E3F1E008081000FC00FA00F4095
:00000001FF
;PIC18F4550
;CRC=7DA0  CREATED="15-Ìבת-25 00:16"
