:1000000026EF00F0086A010E096E076A075007081C
:1000100019E309C000F00750016E04E0D8900036E3
:10002000012EFCD700500614006E0750016E04E04C
:10003000D8900032012EFCD70050010801E1082AB7
:10004000072AE4D708C001F036EF00F0F86AD09E26
:10005000C150C00B0F09C16E070EB46E000E936E37
:10006000FF0E956E056A83CF06F0CCD701C005F070
:100070000550010B05E193908A8093928A9204D0F7
:0C00800093908A9093928A82EED703003E
:020000040030CA
:0E000000240E3F1E008081000FC00FA00F4095
:00000001FF
;PIC18F4550
;CRC=E853  CREATED="17-Ìבס-25 20:53"
