:1000000018EF00F0EA6A070EE96EEF5010E00F0EED
:10001000016EBF0E006E0400002EFDD7012EF9D731
:100020008F0E006E002EFED70400EF2EF0D71200C8
:10003000F86AD09EC150C00B0F09C16E070EB46E96
:10004000000E936EFF0E956E83AE03D0936A8A6A9C
:10005000FBD783A043D0080E066EFA0E076ED2DFE0
:10006000062EFBD793928A8283B238D093928A92DB
:10007000080E066EFA0E076EC5DF062EFBD79394A8
:100080008A840C0E066EFA0E076EBCDF062EFBD7B6
:10009000056A055009080DE393968A760C0E066EE4
:1000A000FA0E076EAFDF062EFBD793988A78052AE3
:1000B000F0D793948A940C0E066EFA0E076EA2DFA8
:1000C000062EFBD7939A8A8A140E066EFA0E076ED6
:1000D00099DF062EFBD7939A8A9AC6D7B5D7030025
:020000040030CA
:0E000000240E3F1E008081000FC00FA00F4095
:00000001FF
;PIC18F4550
;CRC=886A  CREATED="22-Ìבס-25 10:40"
