:1000000018EF00F0EA6A050EE96EEF5010E00F0EEF
:10001000016EBF0E006E0400002EFDD7012EF9D731
:100020008F0E006E002EFED70400EF2EF0D71200C8
:10003000F86AD09EC150C00B0F09C16E070EB46E96
:10004000000E936E800E816E010E046E0450070840
:1000500007E3C80E056ED6DFD8908132042AF6D7A2
:10006000070E046E0450000807E2C80E056ECADFD2
:0C007000D89081360406F6D7E7D70300CD
:020000040030CA
:0E000000240E3F1E008081000FC00FA00F4095
:00000001FF
;PIC18F4550
;CRC=8EA3  CREATED="11-Ìבת-25 10:39"
