:0400000081EF00F09C
:08000800046ED8CF05F0E0CF33
:1000100006F00001E9CF0CF0EACF07F0E1CF08F0DD
:10002000E2CF09F0D9CF0AF0DACF0BF0F3CF12F01C
:10003000F4CF13F0FACF14F000C00EF001C00FF0AF
:1000400002C010F003C011F0F2A82AEF00F0F2B2E3
:1000500051EF00F0F0A830EF00F0F0B257EF00F0F1
:100060000EC000F00FC001F010C002F011C003F08C
:100070000CC0E9FF07C0EAFF078E08C0E1FF09C016
:10008000E2FF0AC0D9FF0BC0DAFF12C0F3FF13C0B2
:10009000F4FF14C0FAFF045006C0E0FF05C0D8FF0B
:1000A000100016807D0E176EF29230EF00F0168071
:1000B000320E176EF09230EF00F0FF0E936E000ECE
:1000C000956E1690176A836AF19EF288F088C00ECA
:1000D000F2128CEF00F0EA6A180EE96EEF5010E0B1
:1000E0000F0E016EBF0E006E0400002EFDD7012E14
:1000F000F9D78F0E006E002EFED70400EF2EF0D73A
:100100001200F86AD09E078E1690C150C00B0F09DE
:10011000C16E070EB46ED1D716A008D0836817C081
:1001200018F0D9DF836A17C018F0D5DFF5D70300C0
:020000040030CA
:0E000000240E3F1E008081000FC00FA00F4095
:00000001FF
;PIC18F4550
;CRC=281F  CREATED="29-Ìבס-25 00:48"
