:0400000043EF01F0D9
:08000800046ED8CF05F0E0CF33
:1000100006F00001E9CF0CF0EACF07F0E1CF08F0DD
:10002000E2CF09F0D9CF0AF0DACF0BF0F3CF12F01C
:10003000F4CF13F0FACF14F000C00EF001C00FF0AF
:1000400002C010F003C011F0F2AA2AEF00F0F2B4DF
:100050006EEF00F00EC000F00FC001F010C002F013
:1000600011C003F00CC0E9FF07C0EAFF078E08C00B
:10007000E1FF09C0E2FF0AC0D9FF0BC0DAFF12C0DE
:10008000F3FF13C0F4FF14C0FAFF045006C0E0FFF2
:1000900005C0D8FF10003650016A355C03E235C058
:1000A00000F00CD0006A080E376E35360036365038
:1000B000005CD8B0006E0136372EF7D712003550ED
:1000C0003702F3CF01F0F4CF00F03802F3500026EE
:1000D00036503702F3500020026E1200150ED76E14
:1000E000A00ED66E83A411D083A00FD0172A17506C
:1000F0003B080BE2176A182A18503B0802E2186AFC
:10010000192A1950170801E2196A83A414D083A28E
:1001100012D0170617503B0803E23B0E176E180665
:1001200018503B0803E23B0E186E190619501708C9
:1001300002E2170E196E1A061AC035F0640E366EFA
:10014000AADF005208E1006A1BB0002A010E001A63
:100150001B9000B01B801A5213E1C80E1A6E83B4B4
:100160000FD0172A17503B080BE2176A182A1850AD
:100170003B0802E2186A192A1950170801E2196AA5
:100180001BB019D018C035F00A0E366E84DF326A03
:1001900001C031F032C036F031C035F0386A0A0E95
:1001A000376E8DDF0150185C2F6E000E0254306EDA
:1001B000346A0B0E336E1BA019D019C035F00A0E2D
:1001C000366E69DF326A01C031F032C036F031C0BC
:1001D00035F0386A0A0E376E72DF0150195C2F6EE7
:1001E000000E0254306E346A0A0E336E162A16C0A0
:1001F00035F0030E366E4FDF00C016F0036A16505E
:100200002C0FE96E000E0320EA6EEFCF82FF16522C
:1002100008E11C0E2F24E96E000E3020EA6EEFCFAD
:1002200081FF162C08D01C0E3124E96E000E3220FE
:10023000EA6EEFCF81FF1650020808E11C0E33244E
:10024000E96E000E3420EA6EEFCF81FFF2942AEFC0
:1002500000F0000E936E946EFF0E956E816A826AB6
:10026000C80E1A6E176A186A0C0E196E166A1B9061
:10027000880ED56E150ED76EA00ED66EF28AC00E01
:10028000F21279EF01F0F86AD09E078E166A176AAB
:10029000186A0C0E196E1B90C150C00B0F09C16E6D
:1002A000070EB46E3F0E1C6E060E1D6E5B0E1E6EAC
:1002B0004F0E1F6E660E206E6D0E216E7D0E226E2D
:1002C000070E236E7F0E246E6F0E256E6B0E266E4C
:1002D000370E276E390E286E5E0E296E790E2A6E45
:1002E000710E2B6E010E2C6E020E2D6E040E2E6EF4
:0602F000B0D7FFD70300A8
:020000040030CA
:0E000000240E3F1E008081000FC00FA00F4095
:00000001FF
;PIC18F4550
;CRC=B442  CREATED="01-Ιουν-25 22:58"
