:0400000045EF01F0D7
:08000800046ED8CF05F0E0CF33
:1000100006F00001E9CF0CF0EACF07F0E1CF08F0DD
:10002000E2CF09F0D9CF0AF0DACF0BF0F3CF12F01C
:10003000F4CF13F0FACF14F000C00EF001C00FF0AF
:1000400002C010F003C011F0F2AA2AEF00F0F2B4DF
:100050006EEF00F00EC000F00FC001F010C002F013
:1000600011C003F00CC0E9FF07C0EAFF078E08C00B
:10007000E1FF09C0E2FF0AC0D9FF0BC0DAFF12C0DE
:10008000F3FF13C0F4FF14C0FAFF045006C0E0FFF2
:1000900005C0D8FF10003750016A365C03E236C055
:1000A00000F00CD0006A080E386E36360036375035
:1000B000005CD8B0006E0136382EF7D712003650EB
:1000C0003802F3CF01F0F4CF00F03902F3500026EC
:1000D00037503802F3500020026E1200150ED76E12
:1000E000A00ED66E83A411D083A00FD0172A17506C
:1000F0003B080BE2176A192A19503B0802E2196AF9
:100100001A2A1A50170801E21A6A83A414D083A28B
:1001100012D0170617503B0803E23B0E176E190664
:1001200019503B0803E23B0E196E1A061A501708C5
:1001300002E2170E1A6E1B061BC036F0640E376EF5
:10014000AADF005208E1006A1CB0002A010E001A62
:100150001C9000B01C801B5213E1C80E1B6E83B4B0
:100160000FD0172A17503B080BE2176A192A1950AB
:100170003B0802E2196A1A2A1A50170801E21A6AA1
:100180001CB019D019C036F00A0E376E84DF336AFE
:1001900001C032F033C037F032C036F0396A0A0E8F
:1001A000386E8DDF0150195C306E000E0254316ED6
:1001B000356A0B0E346E1CA019D01AC036F00A0E28
:1001C000376E69DF336A01C032F033C037F032C0B6
:1001D00036F0396A0A0E386E72DF01501A5C306EE2
:1001E000000E0254316E356A0A0E346E162A16C09D
:1001F00036F0030E376E4FDF00C016F0036A16505C
:100200002D0FE96E000E0320EA6EEFCF82FF16522B
:1002100008E11D0E3024E96E000E3120EA6EEFCFAA
:1002200081FF162C08D01D0E3224E96E000E3320FB
:10023000EA6EEFCF81FF1650020808E11D0E34244C
:10024000E96E000E3520EA6EEFCF81FFF2942AEFBF
:1002500000F0000E936E946EFF0E956E816A826AB6
:10026000C80E1B6E176A010E186E196A0C0E1A6EF4
:10027000166A1C90880ED56E150ED76EA00ED66E1F
:10028000F28AC00EF2127DEF01F0F86AD09E078E5E
:10029000166A176A140E186E196A0C0E1A6E1C90E4
:1002A000C150C00B0F09C16E070EB46E3F0E1D6E1C
:1002B000060E1E6E5B0E1F6E4F0E206E660E216EBA
:1002C0006D0E226E7D0E236E070E246E7F0E256E40
:1002D0006F0E266E6B0E276E370E286E390E296E46
:1002E0005E0E2A6E790E2B6E710E2C6E010E2D6E27
:0E02F000020E2E6E040E2F6EACD7FFD7030049
:020000040030CA
:0E000000240E3F1E008081000FC00FA00F4095
:00000001FF
;PIC18F4550
;CRC=C88A  CREATED="28-Απρ-25 23:38"
