:10000000DBEF00F0F76A140FF66E000EF72209001E
:10001000F5501200280C0106200020002000EA6A9A
:10002000A80EE96EEF5010E00F0E016EBF0E006ECD
:100030000400002EFDD7012EF9D78F0E006E002E82
:10004000FED70400EF2EF0D71200AFB102D08A988D
:1000500001D08A889398AFB302D08A9A01D08A8A55
:10006000939AAFB502D08A9C01D08A8C939CAFB78B
:1000700002D08A9E01D08A8E939E060E006E002EBC
:10008000FED7000093968A860400B30E006E002E01
:10009000FED7000093968A96120093948A94AC53EC
:1000A00003E093948A8402D093948A94020E006EA3
:1000B000002EFED700D0000093968A96AD39AE6F21
:1000C0000F0EAE17AEC0AFF0C0DFAD510F0BAE6F6D
:1000D000AF6FBBDF120093948A9493968A969392A3
:1000E0008A920A0EA86F9BDFA56BA551020808E350
:1000F000030EAF6FAADF020EA86F91DFA52BF5D715
:10010000020EAF6FA2DFA56BA551030811E3036ACE
:10011000A551F2CFA6F0F29E75DFA6BFF28EA66FB4
:10012000AC6BAD6FBADF010EA86F79DFA52BECD7F2
:100130001200A92D01D003D0400EAA6F01D0AA6BE6
:10014000010EA85DAA27AA518009AB6FAC6BAD6FF9
:10015000A4DF1200A7510C0A05E0060A0BE0020A10
:100160000FE013D0AC6B010EAD6F97DF010EA86FDF
:1001700056DF10D0010EA86F020EA96FDADF0AD089
:10018000AC6B100EAD6F89DF05D0010EAC6FA7C050
:10019000ADF083DF12000900F5520CE0F6CFA5F0B8
:1001A000F7CFA6F0F5CFA7F0D5DFA5C0F6FFA6C024
:1001B000F7FFF1D71200F86AD09E010E046E056AAF
:1001C000066A076A086A096A0A6AC150C00B0F0901
:1001D000C16E070EB46E4AD08C000B5448495320B0
:1001E00049532041205445535420544558542054D9
:1001F0004F2053484F5720484F5720544F205343C8
:10020000524F4C4C205448452054455854204F4E92
:100210002050494331384634353530204D4943521A
:100220004F434F4E54524F4C4C45522048454C4C36
:100230004F20454D4245444445442053595354456D
:100240004D53204C41424F5241544F52592E205051
:10025000616E6167696F74697320416C6576726F56
:10026000706F756C6F732E0DC0200000000EF86E5D
:10027000010EF76ED80EF66E0900F550006E000AFA
:1002800013E00900F550016EE8BE05D00F0BEA6ED1
:100290000900F5CFE9FF01BC090001AC0900F5CF69
:1002A000EEFF004EE9D7F9D7F86AFF0E956EA46B02
:1002B00012DF0C0EA76F4EDF010E046E0A6A9582E4
:1002C00083A201D0FCD7A4519808D8A0A5D0036A76
:1002D000A4510B0FE96E000E0320EA6EEF502008C8
:1002E00005E0A451980802E3A42BF1D70550A45DC2
:1002F0000F0804E3A42BA4C006F08DD00A50010817
:1003000033E30A2A010EA86F04C0A9F012DF05C06A
:1003100007F00650075C0EE2036A07500B0FE96E08
:10032000000E0320EA6EEFCFA5F0A5C0A7F012DF04
:10033000072AEFD7076A0550065CFF0A110F075C12
:1003400007E2180EF66E000EF76E25DF072AF3D7C8
:10035000020E046E05C008F006C009F006C005F0E4
:10036000C80EA86F5CDE57D0010EA86FA96FE1DE42
:1003700008C007F00950075C0EE2036A07500B0F34
:10038000E96E000E0320EA6EEFCFA5F0A5C0A7F03E
:10039000E1DE072AEFD7076A0850095CFF0A110F50
:1003A000075C07E21A0EF66E000EF76EF4DE072AFF
:1003B000F3D70A0EA86F33DE010EA86F020EA96FE5
:1003C000B8DE05C007F00650075C0EE2036A07506E
:1003D0000B0FE96E000E0320EA6EEFCFA5F0A5C06B
:1003E000A7F0B8DE072AEFD7076A0550065CFF0AB8
:1003F000110F075C07E21C0EF66E000EF76ECBDEE7
:10040000072AF3D705C008F006C009F006C005F0BA
:10041000C80EA86F04DE57D7056A066A086A096A1B
:0E0420000A6A010E046EA46B56DE49D7030073
:020000040030CA
:0E000000240E3F1E008081000FC00FA00F4095
:00000001FF
;PIC18F4550
;CRC=F2DF  CREATED="14-Ìבת-25 23:29"
