:0400000077EF00F0A6
:08000800046ED8CF05F0E0CF33
:1000100006F00001E9CF0CF0EACF07F0E1CF08F0DD
:10002000E2CF09F0D9CF0AF0DACF0BF0F3CF12F01C
:10003000F4CF13F0FACF14F000C00EF001C00FF0AF
:1000400002C010F003C011F0F0A62AEF00F0F0B0EB
:1000500051EF00F0F0A830EF00F0F0B25EEF00F0EA
:100060000EC000F00FC001F010C002F011C003F08C
:100070000CC0E9FF07C0EAFF078E08C0E1FF09C016
:10008000E2FF0AC0D9FF0BC0DAFF12C0F3FF13C0B2
:10009000F4FF14C0FAFF045006C0E0FF05C0D8FF0B
:1000A000100081AE06D081A204D0163C01D001D050
:1000B000162A16C083FFF09030EF00F081BE05D005
:1000C00081A403D0165201E0160616C083FFF092F9
:1000D00030EF00F0FF0E936E000E956E166A16C09C
:1000E00083FFF086F088C00EF21282EF00F0F86A0B
:1000F000D09E078E166AC150C00B0F09C16E070E45
:08010000B46EE8D7FFD703003D
:020000040030CA
:0E000000240E3F1E008081000FC00FA00F4095
:00000001FF
;PIC18F4550
;CRC=BCE1  CREATED="22-Ìבס-25 23:50"
