:1000000028EF01F0535731204F4E20005357312035
:100010004F4646200000535732204F4E2000535782
:1000200032204F4646200000535733204F4E2000C9
:10003000535733204F4646200000535734204F4E2D
:100040002000535734204F46462000005357352098
:100050004F4E2000535735204F464620000053573F
:1000600036204F4E2000535736204F464620000082
:10007000535737204F4E2000535737204F464620C6
:100080000000535738204F4E2000535738204F461A
:10009000462000004D494B524F204949204C4142D7
:1000A0000000000E936EFF0E956E32EF01F008B067
:1000B00002D08A9801D08A88939808B202D08A9A8E
:1000C00001D08A8A939A08B402D08A9C01D08A8C83
:1000D000939C08B602D08A9E01D08A8E939E12000D
:1000E000EA6A080EE96EEF5010E00F0E016EBF0EC7
:1000F000006E0400002EFDD7012EF9D78F0E006E82
:10010000002EFED70400EF2EF0D7120093968A86B9
:100110000400270E006E002EFED7000093968A96EC
:10012000050E086EDDDF1200053A05C008F0BFDFDE
:10013000EDDF053A05C008F0BADFE8DF1200086A13
:10014000B6DF020E056EFA0E086ECADF052EFBD76B
:1001500093948A94030E086EAADFD8DFD7DFD6DF28
:10016000020E086EA4DFD2DF2C0E056EDDDF0C0E52
:10017000056EDADF010E056ED7DF060E056ED4DFE1
:1001800033EF01F0053A05500809066E086E8FDF5F
:10019000BDDF053A05C008F08ADFB8DF120093948E
:1001A0008A84073A07C008F082DFB0DF073A07C049
:1001B00008F07DDFABDF93948A9412000900F552BA
:1001C0000CE0F6CF05F0F7CF06F0F5CF07F0E7DF4C
:1001D00005C0F6FF06C0F7FFF1D71200010E056E4D
:1001E000A3DF010E056ECEDF940EF66E000EF76EE5
:1001F000E5DF040E056EFA0E086E72DF052EFBD7E2
:10020000070E056E91DF046A04500C080FE3010E1F
:10021000056EB8DF200E076EC2DF020E056EC80E37
:10022000086E5EDF052EFBD7042AEED7040E056E9E
:10023000FA0E086E55DF052EFBD7010E056E74DF32
:10024000060E056E71DF140E086E4ADF34EF01F002
:10025000F86AD09E046AC150C00B0F09C16E070E28
:10026000B46E1FD76CD7BAD78350010B09E1010ECA
:10027000056E88DF040EF66E000EF76E9FDF08D065
:10028000010E056E7FDF0C0EF66E000EF76E96DF28
:100290008350020B010809E3090E056E73DF160E89
:1002A000F66E000EF76E8ADF08D0090E056E6ADF63
:1002B0001E0EF66E000EF76E81DF8350040B0108F0
:1002C00009E3410E056E5EDF280EF66E000EF76E36
:1002D00075DF08D0410E056E55DF300EF66E000E4C
:1002E000F76E6CDF8350080B010809E3490E056EB9
:1002F00049DF3A0EF66E000EF76E60DF08D0490E49
:10030000056E40DF420EF66E000EF76E57DF040EEC
:10031000056EFA0E086EE4DE052EFBD78350100B37
:10032000010809E3010E056E2DDF4C0EF66E000E7E
:10033000F76E44DF08D0010E056E24DF540EF66E12
:10034000000EF76E3BDF8350200B010809E3090E16
:10035000056E18DF5E0EF66E000EF76E2FDF08D00A
:10036000090E056E0FDF660EF66E000EF76E26DFC5
:100370008350400B010809E3410E056E03DF700E48
:10038000F66E000EF76E1ADF08D0410E056EFADE2B
:10039000780EF66E000EF76E11DF8350800B0108A9
:1003A00009E3490E056EEEDE820EF66E000EF76E64
:1003B00005DF08D0490E056EE5DE8A0EF66E000EEA
:1003C000F76EFCDE040E056EFA0E086E89DE052E51
:0603D000FBD74AD7030031
:020000040030CA
:0E000000240E3F1E008081000FC00FA00F4095
:00000001FF
;PIC18F4550
;CRC=6DAF  CREATED="08-Ìבת-25 00:26"
