:0400000002EF01F01A
:08000800046ED8CF05F0E0CF33
:1000100006F00001E9CF0CF0EACF07F0E1CF08F0DD
:10002000E2CF09F0D9CF0AF0DACF0BF0F3CF12F01C
:10003000F4CF13F0FACF14F000C00EF001C00FF0AF
:1000400002C010F003C011F0F2AA2AEF00F0F2B4DF
:1000500080EF00F00EC000F00FC001F010C002F001
:1000600011C003F00CC0E9FF07C0EAFF078E08C00B
:10007000E1FF09C0E2FF0AC0D9FF0BC0DAFF12C0DE
:10008000F3FF13C0F4FF14C0FAFF045006C0E0FFF2
:1000900005C0D8FF1000016A026A006A036A415075
:1000A00002E1405018E0100E426ED8903E363F36C6
:1000B000003603364150035C02E14050005C07E328
:1000C0004050005ED8A003064150035ED880013640
:1000D0000236422EEAD712003F50016A3E5C03E22C
:1000E0003EC000F00CD0006A080E406E3E3600366E
:1000F0003F50005CD8B0006E0136402EF7D712009A
:100100003D6A3C6A1DC03FF01CC03EF0416A0A0EC9
:10011000406EC1DF02C03BF001C03AF01DC03FF0AD
:100120001CC03EF0416A0A0E406EB5DF0050396ACD
:10013000386E150ED76EA00ED66E1E2A1EC03EF06B
:10014000030E3F6EC9DF00C01EF0036A1E50300F61
:10015000E96E000E0320EA6EEFCF82FF1E5208E127
:10016000200E3824E96E000E3920EA6EEFCF81FFB1
:100170001E2C08D0200E3A24E96E000E3B20EA6EB9
:10018000EFCF81FF1E50020808E1200E3C24E96EEB
:10019000000E3D20EA6EEFCF81FFF2942AEF00F0CF
:1001A000000E936E946EFF0E956E816A826A1E6ACF
:1001B000880ED56E150ED76EA00ED66EF28AC00EC2
:1001C000F2123CEF01F0EA6A340EE96EEF5010E0F3
:1001D0000F0E016EBF0E006E0400002EFDD7012E23
:1001E000F9D78F0E006E002EFED70400EF2EF0D749
:1001F00012001E0E346EE7DF83500F0B336E33C0D8
:1002000001F01200F86AD09E078E176A186A196A00
:100210001B6A1A6A1D6A1C6A1E6A010E1F6EC15093
:10022000C00B0F09C16E070EB46E3F0E206E060E96
:10023000216E5B0E226E4F0E236E660E246E6D0EC7
:10024000256E7D0E266E070E276E7F0E286E6F0EB2
:10025000296E400E2A6E790E2B6E390E2C6E5E0EB4
:100260002D6E790E2E6E710E2F6E010E306E020EF7
:10027000316E040E326E94D7010E1F5CFC0FD8B0A5
:100280009DD0040FE0EF01F0958E83BE0ED0958CCB
:1002900083BC0BD0AEDF01C017F01D6A17C01CF085
:1002A000640E346E90DF020E1F6E88D0958E83AE82
:1002B0000ED0958C83AC0BD09CDF01C018F01D6A6A
:1002C00018C01CF0640E346E7EDF030E1F6E76D0F5
:1002D000958E83BE0ED0958C83AC0BD08ADF01C087
:1002E00019F01D6A19C01CF0640E346E6CDF040E28
:1002F0001F6E64D0040E336EFA0E346E64DF332E3C
:10030000FBD7172C06D0195018241C6E1D6A1B6AC7
:100310001A6A1750020813E11950185C06E31950C5
:10032000185C1C6E1D6A1B6A1A6A1950185C07E279
:100330001850195C1C6E1D6A1B6A0A0E1A6E175043
:10034000030824E118501902F3CF34F0166AF2BE04
:10035000168EF29E34C03EF0640E3F6EBDDE16BEB9
:10036000F28E1D6A00C01CF018501902F3CF34F051
:10037000166AF2BE168EF29E34C03EF0640E3F6ED8
:10038000ABDE16BEF28E1B6A01C01AF017500308CE
:1003900002E3175206E11D6A010E1C6E1B6A0B0E6A
:1003A0001A6E080E336EFA0E346E0DDF332EFBD745
:1003B0001D6A1C6A1B6A1A6A010E1F6E5DD7030054
:1003C000F2CF0DF0F29EE824F76AF736E50FF66EED
:1003D000030EF7220A00F550FA6E0800F5500DBE24
:0C03E000F28EF96E8802AC02D002F4022A
:020000040030CA
:0E000000240E3F1E008081000FC00FA00F4095
:00000001FF
;PIC18F4550
;CRC=34F8  CREATED="29-Απρ-25 23:54"
