:0400000080EF00F09D
:08000800046ED8CF05F0E0CF33
:1000100006F00001E9CF0CF0EACF07F0E1CF08F0DD
:10002000E2CF09F0D9CF0AF0DACF0BF0F3CF12F01C
:10003000F4CF13F0FACF14F000C00EF001C00FF0AF
:1000400002C010F003C011F0F2A82AEF00F0F2B2E3
:1000500062EF00F00EC000F00FC001F010C002F01F
:1000600011C003F00CC0E9FF07C0EAFF078E08C00B
:10007000E1FF09C0E2FF0AC0D9FF0BC0DAFF12C0DE
:10008000F3FF13C0F4FF14C0FAFF045006C0E0FFF2
:1000900005C0D8FF1000EA6A180EE96EEF5010E0B4
:1000A0000F0E016EBF0E006E0400002EFDD7012E54
:1000B000F9D78F0E006E002EFED70400EF2EF0D77A
:1000C0006EEF00F01606165202E1300E166E16C0E4
:1000D00083FF020E176E960E186EDDD7172EFBD714
:1000E000F2922AEF00F0FF0E936E000E956E16C08E
:1000F00083FFF19EF19CF288C00EF2128CEF00F0AB
:10010000F86AD09E078E300E166EC150C00B0F09D4
:0C011000C16E070EB46EE7D7FFD70300E6
:020000040030CA
:0E000000240E3F1E008081000FC00FA00F4095
:00000001FF
;PIC18F4550
;CRC=776B  CREATED="22-Ìבס-25 21:16"
