:0400000060EF01F0BC
:08000800046ED8CF05F0E0CF33
:1000100006F00001E9CF0CF0EACF07F0E1CF08F0DD
:10002000E2CF09F0D9CF0AF0DACF0BF0F3CF12F01C
:10003000F4CF13F0FACF14F000C00EF001C00FF0AF
:1000400002C010F003C011F0F2AA2AEF00F0F2B4DF
:1000500090EF00F00EC000F00FC001F010C002F0F1
:1000600011C003F00CC0E9FF07C0EAFF078E08C00B
:10007000E1FF09C0E2FF0AC0D9FF0BC0DAFF12C0DE
:10008000F3FF13C0F4FF14C0FAFF045006C0E0FFF2
:1000900005C0D8FF1000016A026A006A036A3F5077
:1000A00002E13E5018E0100E406ED8903C363D36CE
:1000B000003603363F50035C02E13E50005C07E32C
:1000C0003E50005ED8A003063F50035ED880013644
:1000D0000236402EEAD712003C503E02F3CF01F028
:1000E000F4CF00F03F02F35000263D503E02F350A3
:1000F0000020026E12003B50016A3A5C03E23AC0F3
:1001000000F00CD0006A080E3C6E3A3600363B50C8
:10011000005CD8B0006E01363C2EF7D714EF01F02A
:100120001950D8B41A06190619522DE11A522BE1AA
:100130001A6AC80E196E1BB006D01BB204D0175035
:10014000D8B418061706175018080AE1182C08D05A
:100150001C5206E0010E186E180E176E1C061B824C
:100160001C5205E11D061FC018F01EC017F01D52DD
:100170000AE1050E1C6E1D6E1B92010E186E2C0EF0
:10018000176E95988C9818C03DF017C03CF03F6AE8
:10019000640E3E6E80DF02C039F001C038F03D6A67
:1001A000640E3C6E39C03FF038C03EF095DF02C0AF
:1001B00003F00150175C3A6E025018583B6E3D6ECA
:1001C0003AC03CF03F6A0A0E3E6E65DF02C037F06F
:1001D00001C036F03D6A640E3C6E39C03FF038C055
:1001E0003EF07ADF02C003F00150175C3A6E025015
:1001F00018583B6E3D6A0A0E3C6E37C03FF036C061
:100200003EF06ADF01503A5C006E02503B580050ED
:10021000356A346E150ED76EA00ED66E162A16C02D
:100220003AF0030E3B6E67D700C016F0036A165013
:10023000300FE96E000E0320EA6EEFCF82FF1652F8
:1002400008E1200E3424E96E000E3520EA6EEFCF6F
:1002500081FF162C08D0200E3624E96E000E3720C0
:10026000EA6EEFCF81FF1650020808E1200E382415
:10027000E96E000E3920EA6EEFCF81FFF2942AEF8B
:1002800000F0000E936E946E0F0E956E816A826A76
:1002900095988C981A6AC80E196E010E186E2C0E5D
:1002A000176E050E1C6E1D6E166A880ED56E150E25
:1002B000D76EA00ED66EF28AC00EF2129FEF01F03A
:1002C000F86AD09E078E166A010E186E2C0E176EF5
:1002D0001A6AC80E196E1B901B92050E1C6E1D6EBD
:1002E0001F6A1E6AC150C00B0F09C16E070EB46EA3
:1002F0003F0E206E060E216E5B0E226E4F0E236E99
:10030000660E246E6D0E256E7D0E266E070E276E10
:100310007F0E286E6F0E296E770E2A6E7C0E2B6E66
:10032000390E2C6E5E0E2D6E790E2E6E710E2F6EA6
:10033000010E306E020E316E040E326EA2D783A211
:1003400002D01B8001D01B9083B604D0010E186E22
:100350002C0E176E83B006D018C01FF017C01EF009
:0803600095988C88ECD703008E
:020000040030CA
:0E000000240E3F1E008081000FC00FA00F4095
:00000001FF
;PIC18F4550
;CRC=7846  CREATED="08-Απρ-25 23:14"
